{
  "address": "0xC603180D79a5Afa341A59134d126fC72Bcd19283",
  "abi": [
    {
      "inputs": [
        {
          "internalType": "address",
          "name": "trustedForwarder",
          "type": "address"
        },
        {
          "internalType": "address",
          "name": "newGameController",
          "type": "address"
        },
        {
          "internalType": "contract ERC20Permit",
          "name": "_token",
          "type": "address"
        }
      ],
      "stateMutability": "nonpayable",
      "type": "constructor"
    },
    {
      "inputs": [],
      "name": "ECDSAInvalidSignature",
      "type": "error"
    },
    {
      "inputs": [
        {
          "internalType": "uint256",
          "name": "length",
          "type": "uint256"
        }
      ],
      "name": "ECDSAInvalidSignatureLength",
      "type": "error"
    },
    {
      "inputs": [
        {
          "internalType": "bytes32",
          "name": "s",
          "type": "bytes32"
        }
      ],
      "name": "ECDSAInvalidSignatureS",
      "type": "error"
    },
    {
      "inputs": [],
      "name": "InvalidShortString",
      "type": "error"
    },
    {
      "inputs": [
        {
          "internalType": "address",
          "name": "owner",
          "type": "address"
        }
      ],
      "name": "OwnableInvalidOwner",
      "type": "error"
    },
    {
      "inputs": [
        {
          "internalType": "address",
          "name": "account",
          "type": "address"
        }
      ],
      "name": "OwnableUnauthorizedAccount",
      "type": "error"
    },
    {
      "inputs": [],
      "name": "PendingDistributions",
      "type": "error"
    },
    {
      "inputs": [
        {
          "internalType": "string",
          "name": "str",
          "type": "string"
        }
      ],
      "name": "StringTooLong",
      "type": "error"
    },
    {
      "anonymous": false,
      "inputs": [],
      "name": "EIP712DomainChanged",
      "type": "event"
    },
    {
      "anonymous": false,
      "inputs": [],
      "name": "GameStarted",
      "type": "event"
    },
    {
      "anonymous": false,
      "inputs": [
        {
          "indexed": false,
          "internalType": "bytes",
          "name": "reason",
          "type": "bytes"
        }
      ],
      "name": "GameStopped",
      "type": "event"
    },
    {
      "anonymous": false,
      "inputs": [
        {
          "indexed": true,
          "internalType": "address",
          "name": "previousOwner",
          "type": "address"
        },
        {
          "indexed": true,
          "internalType": "address",
          "name": "newOwner",
          "type": "address"
        }
      ],
      "name": "OwnershipTransferred",
      "type": "event"
    },
    {
      "anonymous": false,
      "inputs": [
        {
          "indexed": false,
          "internalType": "bytes",
          "name": "poolId",
          "type": "bytes"
        },
        {
          "indexed": false,
          "internalType": "uint256",
          "name": "totalWinners",
          "type": "uint256"
        },
        {
          "indexed": false,
          "internalType": "uint256",
          "name": "from",
          "type": "uint256"
        },
        {
          "indexed": false,
          "internalType": "uint256",
          "name": "to",
          "type": "uint256"
        },
        {
          "indexed": false,
          "internalType": "int64",
          "name": "timestamp",
          "type": "int64"
        }
      ],
      "name": "RoundDistributed",
      "type": "event"
    },
    {
      "anonymous": false,
      "inputs": [
        {
          "indexed": false,
          "internalType": "bytes",
          "name": "poolId",
          "type": "bytes"
        },
        {
          "indexed": false,
          "internalType": "int64",
          "name": "timestamp",
          "type": "int64"
        },
        {
          "indexed": false,
          "internalType": "int32",
          "name": "startPrice",
          "type": "int32"
        },
        {
          "indexed": false,
          "internalType": "int32",
          "name": "endPrice",
          "type": "int32"
        },
        {
          "indexed": true,
          "internalType": "bytes",
          "name": "indexedPoolId",
          "type": "bytes"
        }
      ],
      "name": "RoundEnded",
      "type": "event"
    },
    {
      "anonymous": false,
      "inputs": [
        {
          "indexed": false,
          "internalType": "bytes",
          "name": "poolId",
          "type": "bytes"
        },
        {
          "indexed": false,
          "internalType": "int64",
          "name": "timestamp",
          "type": "int64"
        },
        {
          "indexed": false,
          "internalType": "int32",
          "name": "price",
          "type": "int32"
        },
        {
          "indexed": false,
          "internalType": "uint256",
          "name": "minTradeAmount",
          "type": "uint256"
        },
        {
          "indexed": false,
          "internalType": "uint256",
          "name": "maxTradeAmount",
          "type": "uint256"
        },
        {
          "indexed": false,
          "internalType": "uint256",
          "name": "poolTradesLimit",
          "type": "uint256"
        },
        {
          "indexed": true,
          "internalType": "bytes",
          "name": "indexedPoolId",
          "type": "bytes"
        }
      ],
      "name": "RoundStarted",
      "type": "event"
    },
    {
      "anonymous": false,
      "inputs": [
        {
          "indexed": false,
          "internalType": "bytes",
          "name": "poolId",
          "type": "bytes"
        },
        {
          "indexed": false,
          "internalType": "address",
          "name": "sender",
          "type": "address"
        },
        {
          "indexed": false,
          "internalType": "uint256",
          "name": "amount",
          "type": "uint256"
        },
        {
          "indexed": false,
          "internalType": "string",
          "name": "prediction",
          "type": "string"
        },
        {
          "indexed": false,
          "internalType": "uint256",
          "name": "newTotal",
          "type": "uint256"
        },
        {
          "indexed": true,
          "internalType": "bytes",
          "name": "indexedPoolId",
          "type": "bytes"
        },
        {
          "indexed": true,
          "internalType": "address",
          "name": "indexedSender",
          "type": "address"
        },
        {
          "indexed": false,
          "internalType": "string",
          "name": "avatarUrl",
          "type": "string"
        },
        {
          "indexed": false,
          "internalType": "string",
          "name": "countryCode",
          "type": "string"
        },
        {
          "indexed": false,
          "internalType": "int64",
          "name": "roundStartTime",
          "type": "int64"
        },
        {
          "indexed": false,
          "internalType": "string",
          "name": "whiteLabelId",
          "type": "string"
        }
      ],
      "name": "TradePlaced",
      "type": "event"
    },
    {
      "anonymous": false,
      "inputs": [
        {
          "indexed": false,
          "internalType": "bytes",
          "name": "poolId",
          "type": "bytes"
        },
        {
          "indexed": false,
          "internalType": "address",
          "name": "sender",
          "type": "address"
        },
        {
          "indexed": false,
          "internalType": "uint256",
          "name": "amount",
          "type": "uint256"
        },
        {
          "indexed": false,
          "internalType": "string",
          "name": "whiteLabelId",
          "type": "string"
        }
      ],
      "name": "TradeReturned",
      "type": "event"
    },
    {
      "anonymous": false,
      "inputs": [
        {
          "indexed": false,
          "internalType": "bytes",
          "name": "poolId",
          "type": "bytes"
        },
        {
          "indexed": false,
          "internalType": "address",
          "name": "sender",
          "type": "address"
        },
        {
          "indexed": false,
          "internalType": "uint256",
          "name": "tradeAmount",
          "type": "uint256"
        },
        {
          "indexed": false,
          "internalType": "uint256",
          "name": "winningsAmount",
          "type": "uint256"
        },
        {
          "indexed": true,
          "internalType": "address",
          "name": "indexedSender",
          "type": "address"
        },
        {
          "indexed": false,
          "internalType": "string",
          "name": "whiteLabelId",
          "type": "string"
        },
        {
          "indexed": false,
          "internalType": "uint8",
          "name": "feePercentage",
          "type": "uint8"
        },
        {
          "indexed": false,
          "internalType": "uint8",
          "name": "feeJackpotPercentage",
          "type": "uint8"
        }
      ],
      "name": "TradeWinningsSent",
      "type": "event"
    },
    {
      "inputs": [
        {
          "internalType": "address",
          "name": "_contract",
          "type": "address"
        }
      ],
      "name": "allowContract",
      "outputs": [],
      "stateMutability": "nonpayable",
      "type": "function"
    },
    {
      "inputs": [
        {
          "internalType": "address",
          "name": "newGameControllerAddress",
          "type": "address"
        }
      ],
      "name": "changeGameControllerAddress",
      "outputs": [],
      "stateMutability": "nonpayable",
      "type": "function"
    },
    {
      "inputs": [
        {
          "internalType": "address",
          "name": "newFeeAddress",
          "type": "address"
        }
      ],
      "name": "changeGameFeeAddress",
      "outputs": [],
      "stateMutability": "nonpayable",
      "type": "function"
    },
    {
      "inputs": [
        {
          "internalType": "address",
          "name": "newFeeJackpotAddress",
          "type": "address"
        }
      ],
      "name": "changeGameFeeJackpotAddress",
      "outputs": [],
      "stateMutability": "nonpayable",
      "type": "function"
    },
    {
      "inputs": [
        {
          "internalType": "uint8",
          "name": "newFeeJackpotPercentage",
          "type": "uint8"
        }
      ],
      "name": "changeGameFeeJackpotPercentage",
      "outputs": [],
      "stateMutability": "nonpayable",
      "type": "function"
    },
    {
      "inputs": [
        {
          "internalType": "uint8",
          "name": "newFeePercentage",
          "type": "uint8"
        }
      ],
      "name": "changeGameFeePercentage",
      "outputs": [],
      "stateMutability": "nonpayable",
      "type": "function"
    },
    {
      "inputs": [
        {
          "internalType": "bytes",
          "name": "poolId",
          "type": "bytes"
        },
        {
          "internalType": "uint256",
          "name": "minBetAmount",
          "type": "uint256"
        },
        {
          "internalType": "uint256",
          "name": "maxBetAmount",
          "type": "uint256"
        },
        {
          "internalType": "uint256",
          "name": "poolBetsLimit",
          "type": "uint256"
        }
      ],
      "name": "createPool",
      "outputs": [],
      "stateMutability": "nonpayable",
      "type": "function"
    },
    {
      "inputs": [
        {
          "internalType": "bytes",
          "name": "poolId",
          "type": "bytes"
        },
        {
          "internalType": "uint32",
          "name": "batchSize",
          "type": "uint32"
        },
        {
          "internalType": "int64",
          "name": "timeMS",
          "type": "int64"
        }
      ],
      "name": "distribute",
      "outputs": [],
      "stateMutability": "nonpayable",
      "type": "function"
    },
    {
      "inputs": [],
      "name": "eip712Domain",
      "outputs": [
        {
          "internalType": "bytes1",
          "name": "fields",
          "type": "bytes1"
        },
        {
          "internalType": "string",
          "name": "name",
          "type": "string"
        },
        {
          "internalType": "string",
          "name": "version",
          "type": "string"
        },
        {
          "internalType": "uint256",
          "name": "chainId",
          "type": "uint256"
        },
        {
          "internalType": "address",
          "name": "verifyingContract",
          "type": "address"
        },
        {
          "internalType": "bytes32",
          "name": "salt",
          "type": "bytes32"
        },
        {
          "internalType": "uint256[]",
          "name": "extensions",
          "type": "uint256[]"
        }
      ],
      "stateMutability": "view",
      "type": "function"
    },
    {
      "inputs": [],
      "name": "feeAddress",
      "outputs": [
        {
          "internalType": "address",
          "name": "",
          "type": "address"
        }
      ],
      "stateMutability": "view",
      "type": "function"
    },
    {
      "inputs": [],
      "name": "feeJackpotAddress",
      "outputs": [
        {
          "internalType": "address",
          "name": "",
          "type": "address"
        }
      ],
      "stateMutability": "view",
      "type": "function"
    },
    {
      "inputs": [],
      "name": "feeJackpotPercentage",
      "outputs": [
        {
          "internalType": "uint8",
          "name": "",
          "type": "uint8"
        }
      ],
      "stateMutability": "view",
      "type": "function"
    },
    {
      "inputs": [],
      "name": "feePercentage",
      "outputs": [
        {
          "internalType": "uint8",
          "name": "",
          "type": "uint8"
        }
      ],
      "stateMutability": "view",
      "type": "function"
    },
    {
      "inputs": [],
      "name": "gameController",
      "outputs": [
        {
          "internalType": "address",
          "name": "",
          "type": "address"
        }
      ],
      "stateMutability": "view",
      "type": "function"
    },
    {
      "inputs": [],
      "name": "getAllowedContracts",
      "outputs": [
        {
          "internalType": "address[]",
          "name": "",
          "type": "address[]"
        }
      ],
      "stateMutability": "view",
      "type": "function"
    },
    {
      "inputs": [],
      "name": "getContractBalance",
      "outputs": [
        {
          "internalType": "uint256",
          "name": "",
          "type": "uint256"
        }
      ],
      "stateMutability": "view",
      "type": "function"
    },
    {
      "inputs": [
        {
          "internalType": "bytes",
          "name": "poolId",
          "type": "bytes"
        }
      ],
      "name": "hasPendingDistributions",
      "outputs": [
        {
          "internalType": "bool",
          "name": "",
          "type": "bool"
        }
      ],
      "stateMutability": "view",
      "type": "function"
    },
    {
      "inputs": [
        {
          "internalType": "bytes",
          "name": "poolId",
          "type": "bytes"
        }
      ],
      "name": "isPoolOpen",
      "outputs": [
        {
          "internalType": "bool",
          "name": "",
          "type": "bool"
        }
      ],
      "stateMutability": "view",
      "type": "function"
    },
    {
      "inputs": [],
      "name": "isRunning",
      "outputs": [
        {
          "internalType": "bool",
          "name": "",
          "type": "bool"
        }
      ],
      "stateMutability": "view",
      "type": "function"
    },
    {
      "inputs": [
        {
          "internalType": "address",
          "name": "forwarder",
          "type": "address"
        }
      ],
      "name": "isTrustedForwarder",
      "outputs": [
        {
          "internalType": "bool",
          "name": "",
          "type": "bool"
        }
      ],
      "stateMutability": "view",
      "type": "function"
    },
    {
      "inputs": [
        {
          "components": [
            {
              "internalType": "bytes",
              "name": "poolId",
              "type": "bytes"
            },
            {
              "internalType": "string",
              "name": "avatarUrl",
              "type": "string"
            },
            {
              "internalType": "string",
              "name": "countryCode",
              "type": "string"
            },
            {
              "internalType": "bool",
              "name": "upOrDown",
              "type": "bool"
            },
            {
              "internalType": "string",
              "name": "whiteLabelId",
              "type": "string"
            }
          ],
          "internalType": "struct UpVsDownGameV6.makeTradeStruct",
          "name": "userTrade",
          "type": "tuple"
        }
      ],
      "name": "makeTrade",
      "outputs": [],
      "stateMutability": "payable",
      "type": "function"
    },
    {
      "inputs": [
        {
          "internalType": "address",
          "name": "owner",
          "type": "address"
        },
        {
          "internalType": "uint256",
          "name": "amount",
          "type": "uint256"
        },
        {
          "internalType": "uint256",
          "name": "deadline",
          "type": "uint256"
        },
        {
          "internalType": "uint8",
          "name": "v",
          "type": "uint8"
        },
        {
          "internalType": "bytes32",
          "name": "r",
          "type": "bytes32"
        },
        {
          "internalType": "bytes32",
          "name": "s",
          "type": "bytes32"
        }
      ],
      "name": "makeTradeFake",
      "outputs": [],
      "stateMutability": "nonpayable",
      "type": "function"
    },
    {
      "inputs": [],
      "name": "notRunningReason",
      "outputs": [
        {
          "internalType": "bytes",
          "name": "",
          "type": "bytes"
        }
      ],
      "stateMutability": "view",
      "type": "function"
    },
    {
      "inputs": [],
      "name": "owner",
      "outputs": [
        {
          "internalType": "address",
          "name": "",
          "type": "address"
        }
      ],
      "stateMutability": "view",
      "type": "function"
    },
    {
      "inputs": [
        {
          "internalType": "bytes",
          "name": "",
          "type": "bytes"
        }
      ],
      "name": "pools",
      "outputs": [
        {
          "internalType": "bool",
          "name": "created",
          "type": "bool"
        },
        {
          "internalType": "int32",
          "name": "startPrice",
          "type": "int32"
        },
        {
          "internalType": "int32",
          "name": "endPrice",
          "type": "int32"
        },
        {
          "internalType": "uint256",
          "name": "minBetAmount",
          "type": "uint256"
        },
        {
          "internalType": "uint256",
          "name": "maxBetAmount",
          "type": "uint256"
        },
        {
          "internalType": "uint256",
          "name": "poolBetsLimit",
          "type": "uint256"
        },
        {
          "components": [
            {
              "internalType": "uint256[]",
              "name": "bets",
              "type": "uint256[]"
            },
            {
              "internalType": "address[]",
              "name": "addresses",
              "type": "address[]"
            },
            {
              "internalType": "string[]",
              "name": "avatars",
              "type": "string[]"
            },
            {
              "internalType": "string[]",
              "name": "countries",
              "type": "string[]"
            },
            {
              "internalType": "string[]",
              "name": "whiteLabelIds",
              "type": "string[]"
            },
            {
              "internalType": "uint256",
              "name": "total",
              "type": "uint256"
            },
            {
              "internalType": "uint256",
              "name": "distributedCount",
              "type": "uint256"
            },
            {
              "internalType": "uint256",
              "name": "totalDistributed",
              "type": "uint256"
            }
          ],
          "internalType": "struct UpVsDownGameV6.BetGroup",
          "name": "upBetGroup",
          "type": "tuple"
        },
        {
          "components": [
            {
              "internalType": "uint256[]",
              "name": "bets",
              "type": "uint256[]"
            },
            {
              "internalType": "address[]",
              "name": "addresses",
              "type": "address[]"
            },
            {
              "internalType": "string[]",
              "name": "avatars",
              "type": "string[]"
            },
            {
              "internalType": "string[]",
              "name": "countries",
              "type": "string[]"
            },
            {
              "internalType": "string[]",
              "name": "whiteLabelIds",
              "type": "string[]"
            },
            {
              "internalType": "uint256",
              "name": "total",
              "type": "uint256"
            },
            {
              "internalType": "uint256",
              "name": "distributedCount",
              "type": "uint256"
            },
            {
              "internalType": "uint256",
              "name": "totalDistributed",
              "type": "uint256"
            }
          ],
          "internalType": "struct UpVsDownGameV6.BetGroup",
          "name": "downBetGroup",
          "type": "tuple"
        },
        {
          "internalType": "int64",
          "name": "roundStartTime",
          "type": "int64"
        },
        {
          "internalType": "uint256",
          "name": "tradesStartTimeMS",
          "type": "uint256"
        },
        {
          "internalType": "uint256",
          "name": "tradesEndTimeMS",
          "type": "uint256"
        }
      ],
      "stateMutability": "view",
      "type": "function"
    },
    {
      "inputs": [
        {
          "internalType": "address",
          "name": "_contract",
          "type": "address"
        }
      ],
      "name": "removeContract",
      "outputs": [],
      "stateMutability": "nonpayable",
      "type": "function"
    },
    {
      "inputs": [],
      "name": "renounceOwnership",
      "outputs": [],
      "stateMutability": "nonpayable",
      "type": "function"
    },
    {
      "inputs": [],
      "name": "startGame",
      "outputs": [],
      "stateMutability": "nonpayable",
      "type": "function"
    },
    {
      "inputs": [
        {
          "internalType": "bytes",
          "name": "reason",
          "type": "bytes"
        }
      ],
      "name": "stopGame",
      "outputs": [],
      "stateMutability": "nonpayable",
      "type": "function"
    },
    {
      "inputs": [],
      "name": "token",
      "outputs": [
        {
          "internalType": "contract ERC20Permit",
          "name": "",
          "type": "address"
        }
      ],
      "stateMutability": "view",
      "type": "function"
    },
    {
      "inputs": [
        {
          "internalType": "address",
          "name": "newOwner",
          "type": "address"
        }
      ],
      "name": "transferOwnership",
      "outputs": [],
      "stateMutability": "nonpayable",
      "type": "function"
    },
    {
      "inputs": [
        {
          "internalType": "bytes",
          "name": "poolId",
          "type": "bytes"
        },
        {
          "internalType": "int64",
          "name": "timeMS",
          "type": "int64"
        },
        {
          "internalType": "uint256",
          "name": "tradesStartTimeMS",
          "type": "uint256"
        },
        {
          "internalType": "uint256",
          "name": "tradesEndTimeMS",
          "type": "uint256"
        },
        {
          "internalType": "int32",
          "name": "price",
          "type": "int32"
        },
        {
          "internalType": "uint32",
          "name": "batchSize",
          "type": "uint32"
        }
      ],
      "name": "trigger",
      "outputs": [],
      "stateMutability": "nonpayable",
      "type": "function"
    }
  ],
  "transactionHash": "0x5e83156358c266aceb0bb04faa07a99a4716ae566fb490181db0503027a203a7",
  "args": [
    "0xd8253782c45a12053594b9deB72d8e8aB2Fca54c",
    "0x7b5159e9bfd7c81b8fb5f7b4feb1ed4c245dd588",
    "0x47dbAdaE62dE1C18628F24C031d987862aAe72c8"
  ],
  "numDeployments": 1,
  "solcInputHash": "584fd97f1bd11bcf91f0a8b68d2ed8cf",
  "bytecode": "0x6101806040526006805462010000339081026001600160b01b03199092169190911761010917909155600780546001600160a01b03191690911790553480156200004857600080fd5b5060405162005764380380620057648339810160408190526200006b91620002b3565b60408051808201825260098152682232b6b7aa37b5b2b760b91b602080830191909152825180840190935260018352603160f81b908301529084846001600160a01b038116620000d657604051631e4fbdf760e01b8152600060048201526024015b60405180910390fd5b620000e181620001ce565b506001600160a01b0316608052620000fb8260016200021e565b610140526200010c8160026200021e565b61016052815160208084019190912061010052815190820120610120524660c0526200019c6101005161012051604080517f8b73c3c69bb8fe3d512ecc4cf759cc79239f7b179b0ffacaa9a75d522b39400f60208201529081019290925260608201524660808201523060a082015260009060c00160405160208183030381529060405280519060200120905090565b60a05250503060e052600380546001600160a01b0319166001600160a01b039290921691909117905550620004ed9050565b600080546001600160a01b038381166001600160a01b0319831681178455604051919092169283917f8be0079c531659141344cd1fd0a4f28419497f9722a3daafe3b4186f6b6457e09190a35050565b60006020835110156200023e57620002368362000257565b905062000251565b816200024b8482620003ac565b5060ff90505b92915050565b600080829050601f8151111562000285578260405163305a27a960e01b8152600401620000cd919062000478565b80516200029282620004c8565b179392505050565b6001600160a01b0381168114620002b057600080fd5b50565b600080600060608486031215620002c957600080fd5b8351620002d6816200029a565b6020850151909350620002e9816200029a565b6040850151909250620002fc816200029a565b809150509250925092565b634e487b7160e01b600052604160045260246000fd5b600181811c908216806200033257607f821691505b6020821081036200035357634e487b7160e01b600052602260045260246000fd5b50919050565b601f821115620003a757600081815260208120601f850160051c81016020861015620003825750805b601f850160051c820191505b81811015620003a3578281556001016200038e565b5050505b505050565b81516001600160401b03811115620003c857620003c862000307565b620003e081620003d984546200031d565b8462000359565b602080601f831160018114620004185760008415620003ff5750858301515b600019600386901b1c1916600185901b178555620003a3565b600085815260208120601f198616915b82811015620004495788860151825594840194600190910190840162000428565b5085821015620004685787850151600019600388901b60f8161c191681555b5050505050600190811b01905550565b600060208083528351808285015260005b81811015620004a75785810183015185820160400152820162000489565b506000604082860101526040601f19601f8301168501019250505092915050565b80516020808301519190811015620003535760001960209190910360031b1b16919050565b60805160a05160c05160e051610100516101205161014051610160516152196200054b60003960006133950152600061336801526000505060005050600050506000505060005050600081816103dd0152613a1801526152196000f3fe6080604052600436106101e35760003560e01c806381196ae211610102578063d4c770cf11610095578063f2fde38b11610064578063f2fde38b14610621578063f68256a814610641578063f6bd02fa1461066e578063fc0c546a1461068e57600080fd5b8063d4c770cf146105ac578063d65ab5f2146105cc578063e4709969146105e1578063eab79b7d1461060157600080fd5b8063a001ecdd116100d1578063a001ecdd14610532578063a21462871461054c578063a7c3324d1461056c578063c375c2ef1461058c57600080fd5b806381196ae2146104ac57806384b0196e146104bf5780638da5cb5b146104e7578063900b7b3f1461051257600080fd5b8063412753581161017a5780636518a0a9116101495780636518a0a91461043a5780636f9fb98a1461045c578063715018a6146104775780637b0642401461048c57600080fd5b8063412753581461036b578063538741c51461039e578063572b6c05146103c0578063595dc8971461041a57600080fd5b80632014e5d1116101b65780632014e5d11461029057806330efabd4146102c25780633b9fe1ee146102e25780633fafac921461033457600080fd5b80630c2f915e146101e8578063159dc6341461021d5780631c2db1921461024e5780631d0d625b14610270575b600080fd5b3480156101f457600080fd5b50610208610203366004614062565b6106bb565b60405190151581526020015b60405180910390f35b34801561022957600080fd5b5060065461023c90610100900460ff1681565b60405160ff9091168152602001610214565b34801561025a57600080fd5b5061026e6102693660046140c6565b61071b565b005b34801561027c57600080fd5b5061026e61028b3660046140c6565b6107ec565b34801561029c57600080fd5b506007546102089074010000000000000000000000000000000000000000900460ff1681565b3480156102ce57600080fd5b506102086102dd366004614062565b6108b8565b3480156102ee57600080fd5b5060075461030f9073ffffffffffffffffffffffffffffffffffffffff1681565b60405173ffffffffffffffffffffffffffffffffffffffff9091168152602001610214565b34801561034057600080fd5b5061035461034f3660046141ae565b6108ed565b6040516102149b9a9998979695949392919061441b565b34801561037757600080fd5b5060065461030f9062010000900473ffffffffffffffffffffffffffffffffffffffff1681565b3480156103aa57600080fd5b506103b361104c565b6040516102149190614499565b3480156103cc57600080fd5b506102086103db3660046140c6565b7f000000000000000000000000000000000000000000000000000000000000000073ffffffffffffffffffffffffffffffffffffffff90811691161490565b34801561042657600080fd5b5061026e6104353660046140c6565b6110bb565b34801561044657600080fd5b5061044f61118d565b60405161021491906144e7565b34801561046857600080fd5b50604051478152602001610214565b34801561048357600080fd5b5061026e61121b565b34801561049857600080fd5b5061026e6104a7366004614525565b61122f565b61026e6104ba3660046145b6565b611615565b3480156104cb57600080fd5b506104d46120d6565b60405161021497969594939291906145f1565b3480156104f357600080fd5b5060005473ffffffffffffffffffffffffffffffffffffffff1661030f565b34801561051e57600080fd5b5061026e61052d3660046146c1565b612138565b34801561053e57600080fd5b5060065461023c9060ff1681565b34801561055857600080fd5b5061026e6105673660046146dc565b61220d565b34801561057857600080fd5b5061026e610587366004614736565b612413565b34801561059857600080fd5b5061026e6105a73660046140c6565b612ae2565b3480156105b857600080fd5b5061026e6105c73660046146c1565b612ce5565b3480156105d857600080fd5b5061026e612d8f565b3480156105ed57600080fd5b5061026e6105fc36600461479b565b612e1e565b34801561060d57600080fd5b5061026e61061c366004614062565b612f6e565b34801561062d57600080fd5b5061026e61063c3660046140c6565b612fe9565b34801561064d57600080fd5b5060045461030f9073ffffffffffffffffffffffffffffffffffffffff1681565b34801561067a57600080fd5b5061026e6106893660046140c6565b61304a565b34801561069a57600080fd5b5060035461030f9073ffffffffffffffffffffffffffffffffffffffff1681565b600080600584846040516106d09291906147f5565b908152604051908190036020018120600c0154906005906106f490879087906147f5565b908152604051908190036020019020600401546107119190614834565b1190505b92915050565b610723613128565b73ffffffffffffffffffffffffffffffffffffffff81166107a5576040517f08c379a000000000000000000000000000000000000000000000000000000000815260206004820152601e60248201527f416464726573732063616e6e6f74206265207a65726f2061646472657373000060448201526064015b60405180910390fd5b600780547fffffffffffffffffffffffff00000000000000000000000000000000000000001673ffffffffffffffffffffffffffffffffffffffff92909216919091179055565b6107f4613128565b73ffffffffffffffffffffffffffffffffffffffff8116610871576040517f08c379a000000000000000000000000000000000000000000000000000000000815260206004820152601e60248201527f416464726573732063616e6e6f74206265207a65726f20616464726573730000604482015260640161079c565b600480547fffffffffffffffffffffffff00000000000000000000000000000000000000001673ffffffffffffffffffffffffffffffffffffffff92909216919091179055565b6000600583836040516108cc9291906147f5565b90815260405190819003602001902054610100900460030b15905092915050565b805160208183018101805160058252928201938201939093209190925280546001820154600283015460038085015460408051600488018054998a0282016101209081019093526101008083018b815260ff8a169b918a04870b9a65010000000000909a0490960b9894959293919284929091849184018282801561099157602002820191906000526020600020905b81548152602001906001019080831161097d575b5050505050815260200160018201805480602002602001604051908101604052809291908181526020018280548015610a0057602002820191906000526020600020905b815473ffffffffffffffffffffffffffffffffffffffff1681526001909101906020018083116109d5575b5050505050815260200160028201805480602002602001604051908101604052809291908181526020016000905b82821015610ada578382906000526020600020018054610a4d90614847565b80601f0160208091040260200160405190810160405280929190818152602001828054610a7990614847565b8015610ac65780601f10610a9b57610100808354040283529160200191610ac6565b820191906000526020600020905b815481529060010190602001808311610aa957829003601f168201915b505050505081526020019060010190610a2e565b50505050815260200160038201805480602002602001604051908101604052809291908181526020016000905b82821015610bb3578382906000526020600020018054610b2690614847565b80601f0160208091040260200160405190810160405280929190818152602001828054610b5290614847565b8015610b9f5780601f10610b7457610100808354040283529160200191610b9f565b820191906000526020600020905b815481529060010190602001808311610b8257829003601f168201915b505050505081526020019060010190610b07565b50505050815260200160048201805480602002602001604051908101604052809291908181526020016000905b82821015610c8c578382906000526020600020018054610bff90614847565b80601f0160208091040260200160405190810160405280929190818152602001828054610c2b90614847565b8015610c785780601f10610c4d57610100808354040283529160200191610c78565b820191906000526020600020905b815481529060010190602001808311610c5b57829003601f168201915b505050505081526020019060010190610be0565b50505050815260200160058201548152602001600682015481526020016007820154815250509080600c016040518061010001604052908160008201805480602002602001604051908101604052809291908181526020018280548015610d1257602002820191906000526020600020905b815481526020019060010190808311610cfe575b5050505050815260200160018201805480602002602001604051908101604052809291908181526020018280548015610d8157602002820191906000526020600020905b815473ffffffffffffffffffffffffffffffffffffffff168152600190910190602001808311610d56575b5050505050815260200160028201805480602002602001604051908101604052809291908181526020016000905b82821015610e5b578382906000526020600020018054610dce90614847565b80601f0160208091040260200160405190810160405280929190818152602001828054610dfa90614847565b8015610e475780601f10610e1c57610100808354040283529160200191610e47565b820191906000526020600020905b815481529060010190602001808311610e2a57829003601f168201915b505050505081526020019060010190610daf565b50505050815260200160038201805480602002602001604051908101604052809291908181526020016000905b82821015610f34578382906000526020600020018054610ea790614847565b80601f0160208091040260200160405190810160405280929190818152602001828054610ed390614847565b8015610f205780601f10610ef557610100808354040283529160200191610f20565b820191906000526020600020905b815481529060010190602001808311610f0357829003601f168201915b505050505081526020019060010190610e88565b50505050815260200160048201805480602002602001604051908101604052809291908181526020016000905b8282101561100d578382906000526020600020018054610f8090614847565b80601f0160208091040260200160405190810160405280929190818152602001828054610fac90614847565b8015610ff95780601f10610fce57610100808354040283529160200191610ff9565b820191906000526020600020905b815481529060010190602001808311610fdc57829003601f168201915b505050505081526020019060010190610f61565b505050908252506005820154602082015260068201546040820152600791820154606090910152601483015460158401546016909401549293910b918b565b6060600a8054806020026020016040519081016040528092919081815260200182805480156110b157602002820191906000526020600020905b815473ffffffffffffffffffffffffffffffffffffffff168152600190910190602001808311611086575b5050505050905090565b6110c3613128565b73ffffffffffffffffffffffffffffffffffffffff8116611140576040517f08c379a000000000000000000000000000000000000000000000000000000000815260206004820152601e60248201527f416464726573732063616e6e6f74206265207a65726f20616464726573730000604482015260640161079c565b6006805473ffffffffffffffffffffffffffffffffffffffff90921662010000027fffffffffffffffffffff0000000000000000000000000000000000000000ffff909216919091179055565b6008805461119a90614847565b80601f01602080910402602001604051908101604052809291908181526020018280546111c690614847565b80156112135780601f106111e857610100808354040283529160200191611213565b820191906000526020600020905b8154815290600101906020018083116111f657829003601f168201915b505050505081565b611223613128565b61122d60006131d3565b565b60045473ffffffffffffffffffffffffffffffffffffffff1633146112b0576040517f08c379a000000000000000000000000000000000000000000000000000000000815260206004820181905260248201527f4f6e6c792067616d6520636f6e74726f6c6c65722063616e20646f2074686973604482015260640161079c565b8686600582826040516112c49291906147f5565b9081526040519081900360200190205460ff1661133d576040517f08c379a000000000000000000000000000000000000000000000000000000000815260206004820152601360248201527f506f6f6c20646f6573206e6f7420657869737400000000000000000000000000604482015260640161079c565b600060058a8a6040516113519291906147f5565b9081526020016040518091039020905061136b8a8a6108b8565b1561150d5760075474010000000000000000000000000000000000000000900460ff1661141a576040517f08c379a000000000000000000000000000000000000000000000000000000000815260206004820152603f60248201527f5468652067616d65206973206e6f742072756e6e696e672c20726f756e64732060448201527f63616e206f6e6c7920626520656e646564206174207468697320706f696e7400606482015260840161079c565b80547fffffffffffffffffffffffffffffffffffffffffffffffffffffff00000000ff1661010063ffffffff8716021781556014810180547fffffffffffffffffffffffffffffffffffffffffffffffff00000000000000001667ffffffffffffffff8a1617905560158101879055601681018690556040516114a0908b908b906147f5565b60405180910390207f977f157300bb4d69d09b3e083fb55a17a0c02f978e5b220c08173c63de9665aa8b8b8b8560000160019054906101000a900460030b86600101548760020154886003015460405161150097969594939291906148e3565b60405180910390a2611609565b805465010000000000900460030b6000036115d75780547fffffffffffffffffffffffffffffffffffffffffffffff00000000ffffffffff166501000000000063ffffffff871602178155604051611568908b908b906147f5565b604051908190038120825490917fe097bf610f5827ffcdd36eb07b790e6ee02dd498f911ab45664208cfad9323b0916115be918e918e918e916101008104600390810b9265010000000000909204900b90614927565b60405180910390a26115d28a8a868b612413565b611609565b6040517fd56be5db00000000000000000000000000000000000000000000000000000000815260040160405180910390fd5b50505050505050505050565b61161f818061495f565b61162982826108b8565b6116b5576040517f08c379a000000000000000000000000000000000000000000000000000000000815260206004820152602160248201527f5468697320706f6f6c20686173206120726f756e6420696e2070726f6772657360448201527f7300000000000000000000000000000000000000000000000000000000000000606482015260840161079c565b60075474010000000000000000000000000000000000000000900460ff16611739576040517f08c379a000000000000000000000000000000000000000000000000000000000815260206004820152601760248201527f5468652067616d65206973206e6f742072756e6e696e67000000000000000000604482015260640161079c565b611743838061495f565b600582826040516117559291906147f5565b9081526040519081900360200190205460ff166117ce576040517f08c379a000000000000000000000000000000000000000000000000000000000815260206004820152601360248201527f506f6f6c20646f6573206e6f7420657869737400000000000000000000000000604482015260640161079c565b6117f46117d9613248565b73ffffffffffffffffffffffffffffffffffffffff16321490565b80611831575060096000611806613248565b73ffffffffffffffffffffffffffffffffffffffff16815260208101919091526040016000205460ff165b6118bd576040517f08c379a000000000000000000000000000000000000000000000000000000000815260206004820152602660248201527f43616c6c6572206d75737420626520454f41206f7220616c6c6f77656420636f60448201527f6e74726163740000000000000000000000000000000000000000000000000000606482015260840161079c565b60003411611927576040517f08c379a000000000000000000000000000000000000000000000000000000000815260206004820152601c60248201527f4e6565647320746f2073656e64204d6174696320746f20747261646500000000604482015260640161079c565b6005611933868061495f565b6040516119419291906147f5565b9081526020016040518091039020600101543410156119e2576040517f08c379a000000000000000000000000000000000000000000000000000000000815260206004820152602e60248201527f547261646520616d6f756e742073686f756c642062652068696768657220746860448201527f616e20746865206d696e696d756d000000000000000000000000000000000000606482015260840161079c565b60056119ee868061495f565b6040516119fc9291906147f5565b908152602001604051809103902060020154341115611a9d576040517f08c379a000000000000000000000000000000000000000000000000000000000815260206004820152602d60248201527f547261646520616d6f756e742073686f756c64206265206c6f7765722074686160448201527f6e20746865206d6178696d756d00000000000000000000000000000000000000606482015260840161079c565b6005611aa9868061495f565b604051611ab79291906147f5565b908152602001604051809103902060160154421115611b32576040517f08c379a000000000000000000000000000000000000000000000000000000000815260206004820152601060248201527f526f756e6420697320636c6f73696e6700000000000000000000000000000000604482015260640161079c565b6005611b3e868061495f565b604051611b4c9291906147f5565b908152602001604051809103902060150154421015611bc7576040517f08c379a000000000000000000000000000000000000000000000000000000000815260206004820152601560248201527f526f756e64206e6f742073746172746564207965740000000000000000000000604482015260640161079c565b6000611bd960808701606088016149d2565b15611d365760016005611bec888061495f565b604051611bfa9291906147f5565b908152602001604051809103902060030154611c1691906149ef565b6005611c22888061495f565b604051611c309291906147f5565b908152604051908190036020019020600401541115611cd1576040517f08c379a000000000000000000000000000000000000000000000000000000000815260206004820152602160248201527f506f6f6c2069732066756c6c2c207761697420666f72206e65787420726f756e60448201527f6400000000000000000000000000000000000000000000000000000000000000606482015260840161079c565b611d2f6005611ce0888061495f565b604051611cee9291906147f5565b908152602001604051809103902060040134888060200190611d10919061495f565b611d1d60408c018c61495f565b611d2a60808e018e61495f565b613257565b9050611e6b565b60016005611d44888061495f565b604051611d529291906147f5565b908152602001604051809103902060030154611d6e91906149ef565b6005611d7a888061495f565b604051611d889291906147f5565b908152604051908190036020019020600c01541115611e29576040517f08c379a000000000000000000000000000000000000000000000000000000000815260206004820152602160248201527f506f6f6c2069732066756c6c2c207761697420666f72206e65787420726f756e60448201527f6400000000000000000000000000000000000000000000000000000000000000606482015260840161079c565b611e686005611e38888061495f565b604051611e469291906147f5565b9081526020016040518091039020600c0134888060200190611d10919061495f565b90505b611e996040518060800160405280606081526020016060815260200160608152602001600060070b81525090565b611ea6602088018861495f565b8080601f016020809104026020016040519081016040528093929190818152602001838380828437600092019190915250505090825250611eea604088018861495f565b8080601f0160208091040260200160405190810160405280939291908181526020018383808284376000920191909152505050506020820152611f30608088018861495f565b8080601f01602080910402602001604051908101604052809392919081815260200183838082843760009201919091525050505060408201526005611f75888061495f565b604051611f839291906147f5565b9081526040519081900360200190206014015460070b6060820152611fa6613248565b73ffffffffffffffffffffffffffffffffffffffff16611fc6888061495f565b604051611fd49291906147f5565b6040519081900390207f68f6fc9b4292a4019c38f766d951dada112bf514a9fa2245e113dd0d72f286156120088a8061495f565b612010613248565b348d606001602081019061202491906149d2565b612063576040518060400160405280600481526020017f444f574e0000000000000000000000000000000000000000000000000000000081525061209a565b6040518060400160405280600281526020017f55500000000000000000000000000000000000000000000000000000000000008152505b8989600001518a602001518b606001518c604001516040516120c59a99989796959493929190614a02565b60405180910390a350505050505050565b6000606080600080600060606120ea613361565b6120f261338e565b604080516000808252602082019092527f0f000000000000000000000000000000000000000000000000000000000000009b939a50919850469750309650945092509050565b612140613128565b60648160ff1611156121d4576040517f08c379a000000000000000000000000000000000000000000000000000000000815260206004820152602260248201527f57726f6e67206a61636b706f74206665652070657263656e746167652076616c60448201527f7565000000000000000000000000000000000000000000000000000000000000606482015260840161079c565b6006805460ff909216610100027fffffffffffffffffffffffffffffffffffffffffffffffffffffffffffff00ff909216919091179055565b600061221d8787878787876133bb565b90508673ffffffffffffffffffffffffffffffffffffffff168173ffffffffffffffffffffffffffffffffffffffff16146122b6576040517f08c379a000000000000000000000000000000000000000000000000000000000815260040161079c9060208082526004908201527f4e4f4f4f00000000000000000000000000000000000000000000000000000000604082015260600190565b6003546040517fd505accf00000000000000000000000000000000000000000000000000000000815273ffffffffffffffffffffffffffffffffffffffff8981166004830152306024830152604482018990526064820188905260ff8716608483015260a4820186905260c482018590529091169063d505accf9060e401600060405180830381600087803b15801561234e57600080fd5b505af1158015612362573d6000803e3d6000fd5b50506003546040517f23b872dd00000000000000000000000000000000000000000000000000000000815273ffffffffffffffffffffffffffffffffffffffff8b81166004830152306024830152604482018b905290911692506323b872dd91506064016020604051808303816000875af11580156123e5573d6000803e3d6000fd5b505050506040513d601f19601f820116820180604052508101906124099190614aaa565b5050505050505050565b60045473ffffffffffffffffffffffffffffffffffffffff163314612494576040517f08c379a000000000000000000000000000000000000000000000000000000000815260206004820181905260248201527f4f6e6c792067616d6520636f6e74726f6c6c65722063616e20646f2074686973604482015260640161079c565b8383600582826040516124a89291906147f5565b9081526040519081900360200190205460ff16612521576040517f08c379a000000000000000000000000000000000000000000000000000000000815260206004820152601360248201527f506f6f6c20646f6573206e6f7420657869737400000000000000000000000000604482015260640161079c565b6000600587876040516125359291906147f5565b9081526040519081900360200190206004810154909150158061255a5750600c810154155b8061257a575080546101008104600390810b65010000000000909204900b145b15612718578054650100000000008104600390810b610100909204900b0361268457600a81015460128201546004830191600c8401916125bc8b8b868c6134ff565b6125c88b8b858c6134ff565b835460068501546040517fd86802201c3bf5d79ef71027c49cdfdee99fa298848917618ba148d098f15f7492612606928f928f929188918f90614ac7565b60405180910390a1825460068401546040517fd86802201c3bf5d79ef71027c49cdfdee99fa298848917618ba148d098f15f749261264c928f928f929187918f90614ac7565b60405180910390a18354600685015414801561266c575082546006840154145b1561267b5761267b8b8b61368e565b50505050612712565b600c8101546000901561269a5781600c0161269f565b816004015b60068101549091506126b38989848a6134ff565b815460068301546040517fd86802201c3bf5d79ef71027c49cdfdee99fa298848917618ba148d098f15f74926126f1928d928d929187918d90614ac7565b60405180910390a1815460068301540361270f5761270f898961368e565b50505b50612ada565b8054600c8201906004830190650100000000008104600390810b610100909204900b121561274b57505060048101600c82015b6000612757838361381a565b905060008863ffffffff168260a0015111612776578160a0015161277e565b8863ffffffff165b905060008185600601546127929190614834565b60068601549091505b818110156129b05760006064876005015486608001518960000185815481106127c6576127c6614b03565b90600052602060002001546127db9190614b32565b6127e6906064614b32565b6127f09190614b49565b6127fa9190614b49565b905061286887600101838154811061281457612814614b03565b600091825260209091200154885473ffffffffffffffffffffffffffffffffffffffff9091169089908590811061284d5761284d614b03565b9060005260206000200154836128639190614834565b61393f565b86600101828154811061287d5761287d614b03565b9060005260206000200160009054906101000a900473ffffffffffffffffffffffffffffffffffffffff1673ffffffffffffffffffffffffffffffffffffffff167fc6f8d1369ef8a4d7d8373cd5079d27245ff35d49aba7ff57de55fbaf8d53813b8f8f8a60010186815481106128f6576128f6614b03565b6000918252602090912001548b5473ffffffffffffffffffffffffffffffffffffffff909116908c908890811061292f5761292f614b03565b9060005260206000200154868d600401898154811061295057612950614b03565b60009182526020909120600654604051612980989796959493929092019160ff8083169261010090041690614c1f565b60405180910390a28087600701546129989190614834565b600788015550806129a881614c8f565b91505061279b565b507fd86802201c3bf5d79ef71027c49cdfdee99fa298848917618ba148d098f15f748c8c87600001805490508860060154858e6040516129f596959493929190614ac7565b60405180910390a16006850181905584548103612ad35760065460408401518451612a5e9273ffffffffffffffffffffffffffffffffffffffff620100008204169260649260ff90921691612a4a9190614834565b612a549190614b32565b6128639190614b49565b60075460065460608501516020860151612aa09373ffffffffffffffffffffffffffffffffffffffff169260649261010090910460ff1691612a4a9190614834565b600654612ac99062010000900473ffffffffffffffffffffffffffffffffffffffff164761393f565b612ad38c8c61368e565b5050505050505b505050505050565b612aea613128565b73ffffffffffffffffffffffffffffffffffffffff811660009081526009602052604090205460ff1615612ce25773ffffffffffffffffffffffffffffffffffffffff8116600090815260096020526040812080547fffffffffffffffffffffffffffffffffffffffffffffffffffffffffffffff001690555b600a54811015612ce0578173ffffffffffffffffffffffffffffffffffffffff16600a8281548110612b9857612b98614b03565b60009182526020909120015473ffffffffffffffffffffffffffffffffffffffff1603612cce57600a8054612bcf906001906149ef565b81548110612bdf57612bdf614b03565b600091825260209091200154600a805473ffffffffffffffffffffffffffffffffffffffff9092169183908110612c1857612c18614b03565b9060005260206000200160006101000a81548173ffffffffffffffffffffffffffffffffffffffff021916908373ffffffffffffffffffffffffffffffffffffffff160217905550600a805480612c7157612c71614cc7565b60008281526020902081017fffffffffffffffffffffffffffffffffffffffffffffffffffffffffffffffff90810180547fffffffffffffffffffffffff0000000000000000000000000000000000000000169055019055612ce0565b80612cd881614c8f565b915050612b64565b505b50565b612ced613128565b60648160ff161115612d5b576040517f08c379a000000000000000000000000000000000000000000000000000000000815260206004820152601a60248201527f57726f6e67206665652070657263656e746167652076616c7565000000000000604482015260640161079c565b600680547fffffffffffffffffffffffffffffffffffffffffffffffffffffffffffffff001660ff92909216919091179055565b612d97613128565b600780547fffffffffffffffffffffff00ffffffffffffffffffffffffffffffffffffffff1674010000000000000000000000000000000000000000179055604080516020810190915260008152600890612df29082614d41565b506040517f762f260439bb4be3ef6e4dc2786e2e7bd187d3d80b79057d7a424fe98563e33590600090a1565b60045473ffffffffffffffffffffffffffffffffffffffff163314612e9f576040517f08c379a000000000000000000000000000000000000000000000000000000000815260206004820181905260248201527f4f6e6c792067616d6520636f6e74726f6c6c65722063616e20646f2074686973604482015260640161079c565b600160058686604051612eb39291906147f5565b90815260405190819003602001812080549215157fffffffffffffffffffffffffffffffffffffffffffffffffffffffffffffff00909316929092179091558390600590612f0490889088906147f5565b9081526020016040518091039020600101819055508160058686604051612f2c9291906147f5565b9081526020016040518091039020600201819055508060058686604051612f549291906147f5565b908152604051908190036020019020600301555050505050565b612f76613128565b600780547fffffffffffffffffffffff00ffffffffffffffffffffffffffffffffffffffff1690556008612fab828483614e5b565b507fbbed56c796999ec9481de9169e54d6f193c57a335189c8b82053d80e263fdbd68282604051612fdd929190614f76565b60405180910390a15050565b612ff1613128565b73ffffffffffffffffffffffffffffffffffffffff8116613041576040517f1e4fbdf70000000000000000000000000000000000000000000000000000000081526000600482015260240161079c565b612ce2816131d3565b613052613128565b73ffffffffffffffffffffffffffffffffffffffff811660009081526009602052604090205460ff16612ce25773ffffffffffffffffffffffffffffffffffffffff16600081815260096020526040812080547fffffffffffffffffffffffffffffffffffffffffffffffffffffffffffffff00166001908117909155600a805491820181559091527fc65a7bb8d6351c1cf70c95a316cc6a92839c986682d98bc35f958f4883f9d2a80180547fffffffffffffffffffffffff0000000000000000000000000000000000000000169091179055565b613130613248565b73ffffffffffffffffffffffffffffffffffffffff1661316560005473ffffffffffffffffffffffffffffffffffffffff1690565b73ffffffffffffffffffffffffffffffffffffffff161461122d57613188613248565b6040517f118cdaa700000000000000000000000000000000000000000000000000000000815273ffffffffffffffffffffffffffffffffffffffff909116600482015260240161079c565b6000805473ffffffffffffffffffffffffffffffffffffffff8381167fffffffffffffffffffffffff0000000000000000000000000000000000000000831681178455604051919092169283917f8be0079c531659141344cd1fd0a4f28419497f9722a3daafe3b4186f6b6457e09190a35050565b6000613252613a14565b905090565b875460018181018a5560008a8152602081209092018990558901613279613248565b8154600180820184556000938452602080852090920180547fffffffffffffffffffffffff00000000000000000000000000000000000000001673ffffffffffffffffffffffffffffffffffffffff949094169390931790925560028c01805492830181558352909120016132ef878983614e5b565b506003890180546001810182556000918252602090912001613312858783614e5b565b506004890180546001810182556000918252602090912001613335838583614e5b565b508789600501600082825461334a9190614834565b909155505050600588015498975050505050505050565b60606132527f00000000000000000000000000000000000000000000000000000000000000006001613a83565b60606132527f00000000000000000000000000000000000000000000000000000000000000006002613a83565b6003546040517f7ecebe0000000000000000000000000000000000000000000000000000000000815273ffffffffffffffffffffffffffffffffffffffff808916600483015260009283927f6e71edae12b1b97f4d1f60370fef10105fa2faae0126114a169c64845d6126c9928b9230928c9290911690637ecebe0090602401602060405180830381865afa158015613458573d6000803e3d6000fd5b505050506040513d601f19601f8201168201806040525081019061347c9190614f92565b60408051602081019690965273ffffffffffffffffffffffffffffffffffffffff94851690860152929091166060840152608083015260a082015260c0810187905260e00160405160208183030381529060405280519060200120905060006134e482613b2e565b90506134f281878787613b76565b9998505050505050505050565b60068201548254600091613512916149ef565b905060008263ffffffff1682116135295781613531565b8263ffffffff165b905060008185600601546135459190614834565b60068601549091505b8181101561367d576135b786600101828154811061356e5761356e614b03565b600091825260209091200154875473ffffffffffffffffffffffffffffffffffffffff909116908890849081106135a7576135a7614b03565b906000526020600020015461393f565b7fb9b3cf88e16ddd6b941ffa04b763047af17bafd3cdecef4d26d46f43e64c120588888860010184815481106135ef576135ef614b03565b600091825260209091200154895473ffffffffffffffffffffffffffffffffffffffff909116908a908690811061362857613628614b03565b90600052602060002001548a600401868154811061364857613648614b03565b90600052602060002001604051613663959493929190614fab565b60405180910390a18061367581614c8f565b91505061354e565b506006909401939093555050505050565b600582826040516136a09291906147f5565b90815260405190819003602001902060040160006136be8282613f6d565b6136cc600183016000613f6d565b6136da600283016000613f8b565b6136e8600383016000613f8b565b6136f6600483016000613f8b565b50600060058281018290556006830182905560079092015560405161371e90849084906147f5565b908152604051908190036020019020600c01600061373c8282613f6d565b61374a600183016000613f6d565b613758600283016000613f8b565b613766600383016000613f8b565b613774600483016000613f8b565b50600060058281018290556006830182905560079092015560405161379c90849084906147f5565b90815260405190819003602001812080547fffffffffffffffffffffffffffffffffffffffffffffffffffffff00000000ff1690556005906137e190849084906147f5565b90815260405190819003602001902080547fffffffffffffffffffffffffffffffffffffffffffffff00000000ffffffffff1690555050565b6138536040518060c001604052806000815260200160008152602001600081526020016000815260200160008152602001600081525090565b600582015460065460009160649161386e919060ff16614b32565b6138789190614b49565b600584015460065491925060009160649161389a91610100900460ff16614b32565b6138a49190614b49565b905060006138b28284614834565b600687015487549192506000916138c991906149ef565b905060008287600501546138dd91906149ef565b905060008588600501546138f191906149ef565b9050600085896005015461390591906149ef565b6040805160c08101825298895260208901979097529587019190915250606085019390935260808401929092525060a08201529392505050565b6000808373ffffffffffffffffffffffffffffffffffffffff16600084604051600060405180830381858888f193505050503d806000811461399d576040519150601f19603f3d011682016040523d82523d6000602084013e6139a2565b606091505b509150915081613a0e576040517f08c379a000000000000000000000000000000000000000000000000000000000815260206004820152601360248201527f436f756c646e27742073656e6420657468657200000000000000000000000000604482015260640161079c565b50505050565b60007f000000000000000000000000000000000000000000000000000000000000000073ffffffffffffffffffffffffffffffffffffffff163303613a7e57507fffffffffffffffffffffffffffffffffffffffffffffffffffffffffffffffec36013560601c90565b503390565b606060ff8314613a9d57613a9683613ba4565b9050610715565b818054613aa990614847565b80601f0160208091040260200160405190810160405280929190818152602001828054613ad590614847565b8015613b225780601f10613af757610100808354040283529160200191613b22565b820191906000526020600020905b815481529060010190602001808311613b0557829003601f168201915b50505050509050610715565b6000610715613b3b613be3565b836040517f19010000000000000000000000000000000000000000000000000000000000008152600281019290925260228201526042902090565b600080600080613b8888888888613d2e565b925092509250613b988282613e28565b50909695505050505050565b60606000613bb183613f2c565b604080516020808252818301909252919250600091906020820181803683375050509182525060208101929092525090565b6000606080600360009054906101000a900473ffffffffffffffffffffffffffffffffffffffff1673ffffffffffffffffffffffffffffffffffffffff166384b0196e6040518163ffffffff1660e01b8152600401600060405180830381865afa158015613c55573d6000803e3d6000fd5b505050506040513d6000823e601f3d9081017fffffffffffffffffffffffffffffffffffffffffffffffffffffffffffffffe0168201604052613c9b91908101906150cf565b50508351602094850120835193850193909320600354604080517f8b73c3c69bb8fe3d512ecc4cf759cc79239f7b179b0ffacaa9a75d522b39400f8189015280820196909652606086019290925246608086015273ffffffffffffffffffffffffffffffffffffffff1660a0808601919091528151808603909101815260c0909401905250508051910120949350505050565b600080807f7fffffffffffffffffffffffffffffff5d576e7357a4501ddfe92f46681b20a0841115613d695750600091506003905082613e1e565b604080516000808252602082018084528a905260ff891692820192909252606081018790526080810186905260019060a0016020604051602081039080840390855afa158015613dbd573d6000803e3d6000fd5b50506040517fffffffffffffffffffffffffffffffffffffffffffffffffffffffffffffffe0015191505073ffffffffffffffffffffffffffffffffffffffff8116613e1457506000925060019150829050613e1e565b9250600091508190505b9450945094915050565b6000826003811115613e3c57613e3c6151b4565b03613e45575050565b6001826003811115613e5957613e596151b4565b03613e90576040517ff645eedf00000000000000000000000000000000000000000000000000000000815260040160405180910390fd5b6002826003811115613ea457613ea46151b4565b03613ede576040517ffce698f70000000000000000000000000000000000000000000000000000000081526004810182905260240161079c565b6003826003811115613ef257613ef26151b4565b03612ce0576040517fd78bce0c0000000000000000000000000000000000000000000000000000000081526004810182905260240161079c565b600060ff8216601f811115610715576040517fb3512b0c00000000000000000000000000000000000000000000000000000000815260040160405180910390fd5b5080546000825590600052602060002090810190612ce29190613fa9565b5080546000825590600052602060002090810190612ce29190613fc2565b5b80821115613fbe5760008155600101613faa565b5090565b80821115613fbe576000613fd68282613fdf565b50600101613fc2565b508054613feb90614847565b6000825580601f10613ffb575050565b601f016020900490600052602060002090810190612ce29190613fa9565b60008083601f84011261402b57600080fd5b50813567ffffffffffffffff81111561404357600080fd5b60208301915083602082850101111561405b57600080fd5b9250929050565b6000806020838503121561407557600080fd5b823567ffffffffffffffff81111561408c57600080fd5b61409885828601614019565b90969095509350505050565b73ffffffffffffffffffffffffffffffffffffffff81168114612ce257600080fd5b6000602082840312156140d857600080fd5b81356140e3816140a4565b9392505050565b7f4e487b7100000000000000000000000000000000000000000000000000000000600052604160045260246000fd5b604051601f82017fffffffffffffffffffffffffffffffffffffffffffffffffffffffffffffffe016810167ffffffffffffffff81118282101715614160576141606140ea565b604052919050565b600067ffffffffffffffff821115614182576141826140ea565b50601f017fffffffffffffffffffffffffffffffffffffffffffffffffffffffffffffffe01660200190565b6000602082840312156141c057600080fd5b813567ffffffffffffffff8111156141d757600080fd5b8201601f810184136141e857600080fd5b80356141fb6141f682614168565b614119565b81815285602083850101111561421057600080fd5b81602084016020830137600091810160200191909152949350505050565b600081518084526020808501945080840160005b8381101561425e57815187529582019590820190600101614242565b509495945050505050565b600081518084526020808501945080840160005b8381101561425e57815173ffffffffffffffffffffffffffffffffffffffff168752958201959082019060010161427d565b60005b838110156142ca5781810151838201526020016142b2565b50506000910152565b600081518084526142eb8160208601602086016142af565b601f017fffffffffffffffffffffffffffffffffffffffffffffffffffffffffffffffe0169290920160200192915050565b600081518084526020808501808196508360051b8101915082860160005b858110156143655782840389526143538483516142d3565b9885019893509084019060010161433b565b5091979650505050505050565b600061010082518185526143888286018261422e565b915050602083015184820360208601526143a28282614269565b915050604083015184820360408601526143bc828261431d565b915050606083015184820360608601526143d6828261431d565b915050608083015184820360808601526143f0828261431d565b91505060a083015160a085015260c083015160c085015260e083015160e08501528091505092915050565b60006101608d151583528c60030b60208401528b60030b60408401528a60608401528960808401528860a08401528060c084015261445b81840189614372565b905082810360e084015261446f8188614372565b60079690960b61010084015250506101208101929092526101409091015298975050505050505050565b6020808252825182820181905260009190848201906040850190845b81811015613b9857835173ffffffffffffffffffffffffffffffffffffffff16835292840192918401916001016144b5565b6020815260006140e360208301846142d3565b8035600781900b811461450c57600080fd5b919050565b803563ffffffff8116811461450c57600080fd5b600080600080600080600060c0888a03121561454057600080fd5b873567ffffffffffffffff81111561455757600080fd5b6145638a828b01614019565b90985096506145769050602089016144fa565b9450604088013593506060880135925060808801358060030b811461459a57600080fd5b91506145a860a08901614511565b905092959891949750929550565b6000602082840312156145c857600080fd5b813567ffffffffffffffff8111156145df57600080fd5b820160a081850312156140e357600080fd5b7fff00000000000000000000000000000000000000000000000000000000000000881681526000602060e08184015261462d60e084018a6142d3565b838103604085015261463f818a6142d3565b6060850189905273ffffffffffffffffffffffffffffffffffffffff8816608086015260a0850187905284810360c0860152855180825283870192509083019060005b8181101561469e57835183529284019291840191600101614682565b50909c9b505050505050505050505050565b803560ff8116811461450c57600080fd5b6000602082840312156146d357600080fd5b6140e3826146b0565b60008060008060008060c087890312156146f557600080fd5b8635614700816140a4565b9550602087013594506040870135935061471c606088016146b0565b92506080870135915060a087013590509295509295509295565b6000806000806060858703121561474c57600080fd5b843567ffffffffffffffff81111561476357600080fd5b61476f87828801614019565b9095509350614782905060208601614511565b9150614790604086016144fa565b905092959194509250565b6000806000806000608086880312156147b357600080fd5b853567ffffffffffffffff8111156147ca57600080fd5b6147d688828901614019565b9099909850602088013597604081013597506060013595509350505050565b8183823760009101908152919050565b7f4e487b7100000000000000000000000000000000000000000000000000000000600052601160045260246000fd5b8082018082111561071557610715614805565b600181811c9082168061485b57607f821691505b602082108103614894577f4e487b7100000000000000000000000000000000000000000000000000000000600052602260045260246000fd5b50919050565b8183528181602085013750600060208284010152600060207fffffffffffffffffffffffffffffffffffffffffffffffffffffffffffffffe0601f840116840101905092915050565b60c0815260006148f760c08301898b61489a565b60079790970b60208301525060039490940b60408501526060840192909252608083015260a09091015292915050565b60808152600061493b60808301878961489a565b60079590950b602083015250600392830b6040820152910b60609091015292915050565b60008083357fffffffffffffffffffffffffffffffffffffffffffffffffffffffffffffffe184360301811261499457600080fd5b83018035915067ffffffffffffffff8211156149af57600080fd5b60200191503681900382131561405b57600080fd5b8015158114612ce257600080fd5b6000602082840312156149e457600080fd5b81356140e3816149c4565b8181038181111561071557610715614805565b6000610120808352614a178184018d8f61489a565b905073ffffffffffffffffffffffffffffffffffffffff8b1660208401528960408401528281036060840152614a4d818a6142d3565b905087608084015282810360a0840152614a6781886142d3565b905082810360c0840152614a7b81876142d3565b90508460070b60e0840152828103610100840152614a9981856142d3565b9d9c50505050505050505050505050565b600060208284031215614abc57600080fd5b81516140e3816149c4565b60a081526000614adb60a08301888a61489a565b90508560208301528460408301528360608301528260070b6080830152979650505050505050565b7f4e487b7100000000000000000000000000000000000000000000000000000000600052603260045260246000fd5b808202811582820484141761071557610715614805565b600082614b7f577f4e487b7100000000000000000000000000000000000000000000000000000000600052601260045260246000fd5b500490565b60008154614b9181614847565b808552602060018381168015614bae5760018114614be657614c14565b7fffffffffffffffffffffffffffffffffffffffffffffffffffffffffffffff008516838901528284151560051b8901019550614c14565b866000528260002060005b85811015614c0c5781548a8201860152908301908401614bf1565b890184019650505b505050505092915050565b60e081526000614c3360e083018a8c61489a565b73ffffffffffffffffffffffffffffffffffffffff891660208401528760408401528660608401528281036080840152614c6d8187614b84565b91505060ff841660a083015260ff831660c08301529998505050505050505050565b60007fffffffffffffffffffffffffffffffffffffffffffffffffffffffffffffffff8203614cc057614cc0614805565b5060010190565b7f4e487b7100000000000000000000000000000000000000000000000000000000600052603160045260246000fd5b601f821115614d3c57600081815260208120601f850160051c81016020861015614d1d5750805b601f850160051c820191505b81811015612ada57828155600101614d29565b505050565b815167ffffffffffffffff811115614d5b57614d5b6140ea565b614d6f81614d698454614847565b84614cf6565b602080601f831160018114614dc25760008415614d8c5750858301515b7fffffffffffffffffffffffffffffffffffffffffffffffffffffffffffffffff600386901b1c1916600185901b178555612ada565b6000858152602081207fffffffffffffffffffffffffffffffffffffffffffffffffffffffffffffffe08616915b82811015614e0f57888601518255948401946001909101908401614df0565b5085821015614e4b57878501517fffffffffffffffffffffffffffffffffffffffffffffffffffffffffffffffff600388901b60f8161c191681555b5050505050600190811b01905550565b67ffffffffffffffff831115614e7357614e736140ea565b614e8783614e818354614847565b83614cf6565b6000601f841160018114614ed95760008515614ea35750838201355b7fffffffffffffffffffffffffffffffffffffffffffffffffffffffffffffffff600387901b1c1916600186901b178355614f6f565b6000838152602090207fffffffffffffffffffffffffffffffffffffffffffffffffffffffffffffffe0861690835b82811015614f285786850135825560209485019460019092019101614f08565b5086821015614f63577fffffffffffffffffffffffffffffffffffffffffffffffffffffffffffffffff60f88860031b161c19848701351681555b505060018560011b0183555b5050505050565b602081526000614f8a60208301848661489a565b949350505050565b600060208284031215614fa457600080fd5b5051919050565b608081526000614fbf60808301878961489a565b73ffffffffffffffffffffffffffffffffffffffff861660208401528460408401528281036060840152614ff38185614b84565b98975050505050505050565b600082601f83011261501057600080fd5b815161501e6141f682614168565b81815284602083860101111561503357600080fd5b614f8a8260208301602087016142af565b805161450c816140a4565b600082601f83011261506057600080fd5b8151602067ffffffffffffffff82111561507c5761507c6140ea565b8160051b61508b828201614119565b92835284810182019282810190878511156150a557600080fd5b83870192505b848310156150c4578251825291830191908301906150ab565b979650505050505050565b600080600080600080600060e0888a0312156150ea57600080fd5b87517fff000000000000000000000000000000000000000000000000000000000000008116811461511a57600080fd5b602089015190975067ffffffffffffffff8082111561513857600080fd5b6151448b838c01614fff565b975060408a015191508082111561515a57600080fd5b6151668b838c01614fff565b965060608a0151955061517b60808b01615044565b945060a08a0151935060c08a015191508082111561519857600080fd5b506151a58a828b0161504f565b91505092959891949750929550565b7f4e487b7100000000000000000000000000000000000000000000000000000000600052602160045260246000fdfea26469706673582212205d8fc86c380c05b519bc344c98146c2a1e4fc3a577b8cf5eca11c43d20c841b364736f6c63430008140033",
  "devdoc": {
    "errors": {
      "ECDSAInvalidSignature()": [
        {
          "details": "The signature derives the `address(0)`."
        }
      ],
      "ECDSAInvalidSignatureLength(uint256)": [
        {
          "details": "The signature has an invalid length."
        }
      ],
      "ECDSAInvalidSignatureS(bytes32)": [
        {
          "details": "The signature has an S value that is in the upper half order."
        }
      ],
      "OwnableInvalidOwner(address)": [
        {
          "details": "The owner is not a valid owner account. (eg. `address(0)`)"
        }
      ],
      "OwnableUnauthorizedAccount(address)": [
        {
          "details": "The caller account is not authorized to perform an operation."
        }
      ]
    },
    "events": {
      "EIP712DomainChanged()": {
        "details": "MAY be emitted to signal that the domain could have changed."
      }
    },
    "kind": "dev",
    "methods": {
      "eip712Domain()": {
        "details": "See {IERC-5267}."
      },
      "owner()": {
        "details": "Returns the address of the current owner."
      },
      "renounceOwnership()": {
        "details": "Leaves the contract without owner. It will not be possible to call `onlyOwner` functions. Can only be called by the current owner. NOTE: Renouncing ownership will leave the contract without an owner, thereby disabling any functionality that is only available to the owner."
      },
      "transferOwnership(address)": {
        "details": "Transfers ownership of the contract to a new account (`newOwner`). Can only be called by the current owner."
      }
    },
    "version": 1
  },
  "userdoc": {
    "kind": "user",
    "methods": {
      "makeTradeFake(address,uint256,uint256,uint8,bytes32,bytes32)": {
        "notice": "=================   FakeTrade ============================="
      }
    },
    "version": 1
  },
  "storageLayout": {
    "storage": [
      {
        "astId": 3683,
        "contract": "contracts/UpVsDownGameV6.sol:UpVsDownGameV6",
        "label": "_owner",
        "offset": 0,
        "slot": "0",
        "type": "t_address"
      },
      {
        "astId": 2183,
        "contract": "contracts/UpVsDownGameV6.sol:UpVsDownGameV6",
        "label": "_nameFallback",
        "offset": 0,
        "slot": "1",
        "type": "t_string_storage"
      },
      {
        "astId": 2185,
        "contract": "contracts/UpVsDownGameV6.sol:UpVsDownGameV6",
        "label": "_versionFallback",
        "offset": 0,
        "slot": "2",
        "type": "t_string_storage"
      },
      {
        "astId": 3906,
        "contract": "contracts/UpVsDownGameV6.sol:UpVsDownGameV6",
        "label": "token",
        "offset": 0,
        "slot": "3",
        "type": "t_contract(ERC20Permit)1056"
      },
      {
        "astId": 3978,
        "contract": "contracts/UpVsDownGameV6.sol:UpVsDownGameV6",
        "label": "gameController",
        "offset": 0,
        "slot": "4",
        "type": "t_address"
      },
      {
        "astId": 3983,
        "contract": "contracts/UpVsDownGameV6.sol:UpVsDownGameV6",
        "label": "pools",
        "offset": 0,
        "slot": "5",
        "type": "t_mapping(t_bytes_memory_ptr,t_struct(Round)3963_storage)"
      },
      {
        "astId": 3986,
        "contract": "contracts/UpVsDownGameV6.sol:UpVsDownGameV6",
        "label": "feePercentage",
        "offset": 0,
        "slot": "6",
        "type": "t_uint8"
      },
      {
        "astId": 3989,
        "contract": "contracts/UpVsDownGameV6.sol:UpVsDownGameV6",
        "label": "feeJackpotPercentage",
        "offset": 1,
        "slot": "6",
        "type": "t_uint8"
      },
      {
        "astId": 3993,
        "contract": "contracts/UpVsDownGameV6.sol:UpVsDownGameV6",
        "label": "feeAddress",
        "offset": 2,
        "slot": "6",
        "type": "t_address"
      },
      {
        "astId": 3997,
        "contract": "contracts/UpVsDownGameV6.sol:UpVsDownGameV6",
        "label": "feeJackpotAddress",
        "offset": 0,
        "slot": "7",
        "type": "t_address"
      },
      {
        "astId": 3999,
        "contract": "contracts/UpVsDownGameV6.sol:UpVsDownGameV6",
        "label": "isRunning",
        "offset": 20,
        "slot": "7",
        "type": "t_bool"
      },
      {
        "astId": 4001,
        "contract": "contracts/UpVsDownGameV6.sol:UpVsDownGameV6",
        "label": "notRunningReason",
        "offset": 0,
        "slot": "8",
        "type": "t_bytes_storage"
      },
      {
        "astId": 4005,
        "contract": "contracts/UpVsDownGameV6.sol:UpVsDownGameV6",
        "label": "allowedContracts",
        "offset": 0,
        "slot": "9",
        "type": "t_mapping(t_address,t_bool)"
      },
      {
        "astId": 4008,
        "contract": "contracts/UpVsDownGameV6.sol:UpVsDownGameV6",
        "label": "allowedContractsList",
        "offset": 0,
        "slot": "10",
        "type": "t_array(t_address)dyn_storage"
      }
    ],
    "types": {
      "t_address": {
        "encoding": "inplace",
        "label": "address",
        "numberOfBytes": "20"
      },
      "t_array(t_address)dyn_storage": {
        "base": "t_address",
        "encoding": "dynamic_array",
        "label": "address[]",
        "numberOfBytes": "32"
      },
      "t_array(t_string_storage)dyn_storage": {
        "base": "t_string_storage",
        "encoding": "dynamic_array",
        "label": "string[]",
        "numberOfBytes": "32"
      },
      "t_array(t_uint256)dyn_storage": {
        "base": "t_uint256",
        "encoding": "dynamic_array",
        "label": "uint256[]",
        "numberOfBytes": "32"
      },
      "t_bool": {
        "encoding": "inplace",
        "label": "bool",
        "numberOfBytes": "1"
      },
      "t_bytes_memory_ptr": {
        "encoding": "bytes",
        "label": "bytes",
        "numberOfBytes": "32"
      },
      "t_bytes_storage": {
        "encoding": "bytes",
        "label": "bytes",
        "numberOfBytes": "32"
      },
      "t_contract(ERC20Permit)1056": {
        "encoding": "inplace",
        "label": "contract ERC20Permit",
        "numberOfBytes": "20"
      },
      "t_int32": {
        "encoding": "inplace",
        "label": "int32",
        "numberOfBytes": "4"
      },
      "t_int64": {
        "encoding": "inplace",
        "label": "int64",
        "numberOfBytes": "8"
      },
      "t_mapping(t_address,t_bool)": {
        "encoding": "mapping",
        "key": "t_address",
        "label": "mapping(address => bool)",
        "numberOfBytes": "32",
        "value": "t_bool"
      },
      "t_mapping(t_bytes_memory_ptr,t_struct(Round)3963_storage)": {
        "encoding": "mapping",
        "key": "t_bytes_memory_ptr",
        "label": "mapping(bytes => struct UpVsDownGameV6.Round)",
        "numberOfBytes": "32",
        "value": "t_struct(Round)3963_storage"
      },
      "t_string_storage": {
        "encoding": "bytes",
        "label": "string",
        "numberOfBytes": "32"
      },
      "t_struct(BetGroup)3938_storage": {
        "encoding": "inplace",
        "label": "struct UpVsDownGameV6.BetGroup",
        "members": [
          {
            "astId": 3919,
            "contract": "contracts/UpVsDownGameV6.sol:UpVsDownGameV6",
            "label": "bets",
            "offset": 0,
            "slot": "0",
            "type": "t_array(t_uint256)dyn_storage"
          },
          {
            "astId": 3922,
            "contract": "contracts/UpVsDownGameV6.sol:UpVsDownGameV6",
            "label": "addresses",
            "offset": 0,
            "slot": "1",
            "type": "t_array(t_address)dyn_storage"
          },
          {
            "astId": 3925,
            "contract": "contracts/UpVsDownGameV6.sol:UpVsDownGameV6",
            "label": "avatars",
            "offset": 0,
            "slot": "2",
            "type": "t_array(t_string_storage)dyn_storage"
          },
          {
            "astId": 3928,
            "contract": "contracts/UpVsDownGameV6.sol:UpVsDownGameV6",
            "label": "countries",
            "offset": 0,
            "slot": "3",
            "type": "t_array(t_string_storage)dyn_storage"
          },
          {
            "astId": 3931,
            "contract": "contracts/UpVsDownGameV6.sol:UpVsDownGameV6",
            "label": "whiteLabelIds",
            "offset": 0,
            "slot": "4",
            "type": "t_array(t_string_storage)dyn_storage"
          },
          {
            "astId": 3933,
            "contract": "contracts/UpVsDownGameV6.sol:UpVsDownGameV6",
            "label": "total",
            "offset": 0,
            "slot": "5",
            "type": "t_uint256"
          },
          {
            "astId": 3935,
            "contract": "contracts/UpVsDownGameV6.sol:UpVsDownGameV6",
            "label": "distributedCount",
            "offset": 0,
            "slot": "6",
            "type": "t_uint256"
          },
          {
            "astId": 3937,
            "contract": "contracts/UpVsDownGameV6.sol:UpVsDownGameV6",
            "label": "totalDistributed",
            "offset": 0,
            "slot": "7",
            "type": "t_uint256"
          }
        ],
        "numberOfBytes": "256"
      },
      "t_struct(Round)3963_storage": {
        "encoding": "inplace",
        "label": "struct UpVsDownGameV6.Round",
        "members": [
          {
            "astId": 3940,
            "contract": "contracts/UpVsDownGameV6.sol:UpVsDownGameV6",
            "label": "created",
            "offset": 0,
            "slot": "0",
            "type": "t_bool"
          },
          {
            "astId": 3942,
            "contract": "contracts/UpVsDownGameV6.sol:UpVsDownGameV6",
            "label": "startPrice",
            "offset": 1,
            "slot": "0",
            "type": "t_int32"
          },
          {
            "astId": 3944,
            "contract": "contracts/UpVsDownGameV6.sol:UpVsDownGameV6",
            "label": "endPrice",
            "offset": 5,
            "slot": "0",
            "type": "t_int32"
          },
          {
            "astId": 3946,
            "contract": "contracts/UpVsDownGameV6.sol:UpVsDownGameV6",
            "label": "minBetAmount",
            "offset": 0,
            "slot": "1",
            "type": "t_uint256"
          },
          {
            "astId": 3948,
            "contract": "contracts/UpVsDownGameV6.sol:UpVsDownGameV6",
            "label": "maxBetAmount",
            "offset": 0,
            "slot": "2",
            "type": "t_uint256"
          },
          {
            "astId": 3950,
            "contract": "contracts/UpVsDownGameV6.sol:UpVsDownGameV6",
            "label": "poolBetsLimit",
            "offset": 0,
            "slot": "3",
            "type": "t_uint256"
          },
          {
            "astId": 3953,
            "contract": "contracts/UpVsDownGameV6.sol:UpVsDownGameV6",
            "label": "upBetGroup",
            "offset": 0,
            "slot": "4",
            "type": "t_struct(BetGroup)3938_storage"
          },
          {
            "astId": 3956,
            "contract": "contracts/UpVsDownGameV6.sol:UpVsDownGameV6",
            "label": "downBetGroup",
            "offset": 0,
            "slot": "12",
            "type": "t_struct(BetGroup)3938_storage"
          },
          {
            "astId": 3958,
            "contract": "contracts/UpVsDownGameV6.sol:UpVsDownGameV6",
            "label": "roundStartTime",
            "offset": 0,
            "slot": "20",
            "type": "t_int64"
          },
          {
            "astId": 3960,
            "contract": "contracts/UpVsDownGameV6.sol:UpVsDownGameV6",
            "label": "tradesStartTimeMS",
            "offset": 0,
            "slot": "21",
            "type": "t_uint256"
          },
          {
            "astId": 3962,
            "contract": "contracts/UpVsDownGameV6.sol:UpVsDownGameV6",
            "label": "tradesEndTimeMS",
            "offset": 0,
            "slot": "22",
            "type": "t_uint256"
          }
        ],
        "numberOfBytes": "736"
      },
      "t_uint256": {
        "encoding": "inplace",
        "label": "uint256",
        "numberOfBytes": "32"
      },
      "t_uint8": {
        "encoding": "inplace",
        "label": "uint8",
        "numberOfBytes": "1"
      }
    }
  }
}